:020000041000EA
:1000000098BA0020AD43001037B10010994300109A
:10001000994300109943001099430010000000001C
:10002000000000000000000000000000B1440010CB
:10003000994300100000000059440010ED5B0010CF
:100040000546001005460010054600100546001044
:100050000546001005460010054600100546001034
:100060000546001005460010054600100546001024
:100070000546001005460010054600100546001014
:100080000546001005460010054600100546001004
:1000900005460010054600100546001005460010F4
:1000A00005460010054600100546001005460010E4
:1000B00005460010054600100546001005460010D4
:1000C00005460010054600100546001005460010C4
:1000D00005460010054600100546001005460010B4
:1000E00005460010054600100546001005460010A4
:1000F0000546001005460010054600100546001094
:100100000546001005460010054600100546001083
:100110000546001005460010054600100546001073
:100120000546001005460010054600100546001063
:100130000546001005460010054600100546001053
:100140000546001005460010054600100546001043
:100150000546001005460010054600100546001033
:100160000546001005460010054600100546001023
:100170000546001005460010054600100546001013
:100180000546001005460010054600100546001003
:1001900005460010054600100546001005460010F3
:1001A00005460010054600100546001005460010E3
:1001B00005460010054600100546001005460010D3
:1001C00005460010054600100546001005460010C3
:1001D00005460010054600100546001005460010B3
:1001E00005460010054600100546001005460010A3
:1001F00053B94AB9002908BF00281CBF4FF0FF318E
:100200004FF0FF3000F00CB8ADF1080C6DE904CEF2
:1002100000F010F8DDF804E0DDE9022304B07047D7
:10022000704700BF034613F8012B002AFBD1181AB0
:10023000013870472DE9F04786468C460846089EEF
:10024000154674461946002B40F0C2808542B2FA2A
:1002500082F245D94AB1C2F1200300FA02FC2EFA1B
:1002600003F3954043EA0C0C94404FEA154EA8B2B4
:10027000BCFBFEF8230C0EFB18CC08FB00F943EA8C
:100280000C43994528D9EB1808F1FF3704D299455A
:1002900002D9A8F102072B44A3EB0903A4B2B3FBD4
:1002A000FEFC0EFB1C330CFB00F044EA0344A042AE
:1002B00014D92C190CF1FF3304D2A04202D9ACF1AD
:1002C00002032C44241A43EA07401EB1D440002301
:1002D00034607360BDE8F0874746DDE76346F1E7C9
:1002E00092BB431B01214FEA154EAFB2B3FBFEFC9C
:1002F000200C0EFB1C330CFB07F840EA0343984527
:1003000062D9EB180CF1FF3004D2984502D9ACF158
:1003100002002B44A3EB0803A4B2B3FBFEFC0EFBCC
:100320001C330CFB07F744EA0344A7424ED92C19AF
:100330000CF1FF3304D2A74202D9ACF102032C44E2
:10034000E41B43EA0040C0E7C2F1200320FA03F1B6
:10035000954090402EFA03F303434FEA154EAFB297
:10036000B1FBFEFC0EFB1C10190C0CFB07F841EA5C
:100370000041884504FA02F422D969180CF1FF30D3
:1003800004D2884502D9ACF102002944A1EB08014E
:100390009BB2B1FBFEFC0EFB1C110CFB07F743EA02
:1003A00001439F420ED9EB180CF1FF3104D29F425A
:1003B00002D9ACF102012B44DB1B41EA004192E778
:1003C0006046E3E76146F7E76046A3E76346B7E7C1
:1003D000834206D916B9002108467BE7C6E900E04A
:1003E000F9E7B3FA83F78FB9834201D3724508D88E
:1003F000BEEB020460EB030301209C461EB9002102
:1004000068E73846FAE7C6E9004CF8E7C7F1200C80
:10041000BB4022FA0CF41C432EFA0CF120FA0CF328
:10042000B84001434FEA14490EFA07F5B3FBF9F857
:100430001FFA84FE09FB18300B0C08FB0EFA43EA86
:1004400000439A4502FA07F240D9E31808F1FF3059
:1004500004D29A4502D9A8F102002344A3EB0A036F
:1004600089B2B3FBF9F809FB183308FB0EFE41EA29
:1004700003418E452CD9611808F1FF3304D28E4513
:1004800002D9A8F10203214443EA0040A0FB0298EC
:10049000A1EB0E014145CE46434602D306D14D4560
:1004A00004D2B9EB020E68EB04030138002EA6D08B
:1004B000B5EB0E0261EB030101FA0CFC22FA07F323
:1004C0004CEA0303F940C6E9003198E74046C5E726
:1004D0004346D9E710B50E4B14461A691268520408
:1004E00048BF81F0010181B19B68DB6808484FF487
:1004F00080419847002C0748BDE810400CBF4FF4DE
:1005000080314FF4D01109F0E8BB9B681B69EDE71F
:10051000E8D200109CD7001010B528480CF014FC4D
:100520000446A0B9062001F089FC30B1244B436198
:100530000223037444748474C474224900234FF466
:10054000825209F0BBFF4FF0FF34204610BD1B481C
:100550000CF0FAFB044630B9062001F06FFC0028CD
:10056000EBD0194BE3E719484FF4B01109F0B5FB94
:10057000044698B1082001F061FC40B1144BC0E979
:10058000053403230374002343748374C3740D4937
:1005900000234FF4C25209F091FFD6E70D484FF403
:1005A000803109F09AFB04460028CED0082001F0E3
:1005B00045FC0028EBD0084BE1E700BFE8D2001073
:1005C000C4E3001004D70010DFE30010A4D700102C
:1005D000F8E300109CD7001017E40010F0B50729CD
:1005E00085B094BF2B4B2C4B6E4602AF88B098BFA2
:1005F00053F8213005460C4602AA2849C2E90513E2
:100600004FF400739383264B42F8103F2548002394
:100610004FF4E65101F06AFDB5462C71072C29D83C
:10062000DFE804F004362C2E3032342A00231E4A30
:10063000FB801268506801230093BA1D0223002139
:1006400000F5CC700BF086FE88B1062001F0F6FBB9
:1006500038B1164B4361022303740023437483743F
:10066000C374104900234FF4825209F027FF0C375E
:10067000BD46F0BD07232B710823D8E72123D6E719
:100680002323D4E72723D2E70723D0E70F23CEE79E
:100690004023CCE74CD7001036E400103AE40010B9
:1006A0000300000104D70010008000204CE400107B
:1006B00038B500220446042109F069FB022200211A
:1006C000204609F064FB46F2A8120321204609F0F7
:1006D0005EFB32220121204609F059FB49F64042D7
:1006E0005A21204609F053FBA94AAA4D3C21204635
:1006F00009F04DFB4FF47A620621204609F047FBD2
:100700004FF47A620721204609F041FB4FF4FA7258
:100710002E21204609F03BFB40F266622F21204645
:1007200009F035FB44F620620521204609F02FFB35
:1007300004220C21204609F02AFB01221121204627
:1007400009F025FB01221221204609F020FB4FF47D
:10075000C3721521204609F01AFB01221E212046F2
:1007600009F015FB00221F21204609F010FB012291
:100770002021204609F00BFB00222121204609F010
:1007800006FB0122EF21204609F001FB0122F021A6
:10079000204609F0FCFA2822F121204609F0F7FA58
:1007A0002822F221204609F0F2FA2822F3212046DD
:1007B00009F0EDFA2822F421204609F0E8FA0A228D
:1007C000F521204609F0E3FA0522F621204609F03A
:1007D000DEFA0A22F721204609F0D9FA0522F8218B
:1007E000204609F0D4FA01223421204609F0CFFA3C
:1007F0002A463621204609F0CAFA2A4639212046DF
:1008000009F0C5FA01224FF4A271204609F0BFFA9F
:10081000614A40F24511204609F0B9FA00224FF42E
:10082000A371204609F0B3FA40F6A35240F24711F3
:10083000204609F0ACFA40F6A3524FF4A4712046CA
:1008400009F0A5FA40F6A35240F24911204609F0FA
:100850009EFA40F209226D21204609F098FA40F2F2
:10086000C2426E21204609F092FA40F209226F211D
:10087000204609F08CFA40F2C2427021204609F06D
:1008800086FA00227221204609F081FA01227321A2
:10089000204609F07CFA40F23B127F21204609F005
:1008A00076FA00228021204609F071FA0122812186
:1008B000204609F06CFA03228221204609F067FAEB
:1008C00042F210729221204609F061FA002293212F
:1008D000204609F05CFA01229421204609F057FADB
:1008E00001229521204609F052FA01224FF481712C
:1008F000204609F04CFA022240F20311204609F08A
:1009000046FA01224FF48271204609F040FA022291
:1009100040F20511204609F03AFA00224FF487719F
:10092000204609F034FA002240F20F11204609F067
:100930002EFA00224FF48F71204609F028FA002287
:1009400040F21F11204609F022FA05224FF490715F
:10095000204609F01CFA40F2C62240F2231120463C
:1009600009F015FA4E224FF49271204609F00FFA61
:100970004FF6FF724FF49371204609F008FA2046B3
:100980004FF6FF72BDE8384040F2271109F0FFB979
:1009900040164000A08601000AD70F002DE9F04F55
:1009A0008FB0FFF7B9FD041E0FDA062001F046FAFA
:1009B00038B1B04B43610223037400234374837442
:1009C000C37400234FF4825216E0AB484FF48031D9
:1009D00009F083F9041E16DA082001F02FFA40B15D
:1009E000A64BC0E9053403230374002343748374C6
:1009F000C37400234FF4C252A14909F05FFD2046A1
:100A00000FB0BDE8F08F9F484FF4803109F065F9D1
:100A1000041E06DA082001F011FA0028E9D09A4BEA
:100A2000DFE79A484FF4803109F057F9041E06DADF
:100A3000082001F003FA0028DBD0954BD1E78E485F
:100A400009F06AF905468F4809F066F944008F48B5
:100A500009F062F944EA85040443082001F0EEF944
:100A600040B18C4BC0E90534032303740023437465
:100A70008374C374DFF82092814900234FF4C65277
:100A8000103409F01BFDE4B2844BC9F80030082093
:100A900089F8044001F0D2F940B1814BC0E9053436
:100AA00003230374002343748374C37474490023C1
:100AB0004FF4C65209F002FD4FF4FA73A9F806305C
:100AC000784BC9F80C307448774BC9F810300025C2
:100AD000A9F8085007F078FB041E0DDA062001F093
:100AE000ADF900283FF46DAF704B436102230374EE
:100AF00045748574C57464E76D4BDFF8B8A1C3F81D
:100B0000009029461846FFF769FD6B4ED9F814305E
:100B10001B6993F90030042B07D165480721FFF7C3
:100B20005DFD642009F00EF9F0E7052B01D00120EE
:100B3000F8E75F4B1C79002C74D1062001F07EF998
:100B400030B15E4B43610223037444748474C474F3
:100B50004B4900234FF4865209F0B0FC5849304607
:100B600000F0FEFB002829DA062001F067F938B111
:100B7000544B436102230374002343748374C3748E
:100B800000234FF482523E4909F098FC484807215F
:100B9000FFF724FDD9F8140042F2BC530093012260
:100BA0004FF4A043406911460BF064F9D9F81430B2
:100BB0001B69002BAAD002229A70A7E70024CDE976
:100BC0000044234622460321304600F0F7FA06206F
:100BD00001F034F930B13C4B436102230374447497
:100BE0008474C474264900234FF4865209F066FCCD
:100BF000062001F023F938B1344B4361022303741A
:100C0000002343748374C3741D4900234FF4865238
:100C100009F054FC3046FFF74BFD25480121FFF752
:100C2000DDFC73E7DAF80030042C586840F084816A
:100C30000123009307AA2346002100F53A700BF028
:100C40006EFB0446002845D0062001F0F7F838B1C5
:100C50001F4B436102230374002343748374C374E2
:100C6000074900234FF4825209F028FC4FF0FF346B
:100C7000C5E600BF65E400107CD7001087E40010D3
:100C800004D7001074D70010ABE400106CD700102C
:100C9000CFE40010F3E40010988E002038D3001049
:100CA0000AE50010D5040010439D00101FE5001058
:100CB000B08E002000800020B88E002037E50010A4
:100CC00084D700104CE5001060E5001070E50010BE
:100CD00083E500100820079D01F0B0F838B1B54B4E
:100CE0004474C0E90535032303748474C474002379
:100CF000B1494FF4C65209F0E1FB079A7C21304616
:100D000009F045F808AA9021304609F04BF804464E
:100D100090B1082001F092F840B1A84BC0E9053429
:100D200003230374002343748374C374A249002310
:100D30004FF4C25209F0C2FB09AA7D21304609F0E6
:100D400031F8044690B1082001F078F840B19C4B8E
:100D5000C0E9053403230374002343748374C3740C
:100D6000954900234FF4C25209F0A8FB0AAA452175
:100D7000304609F017F8044690B1082001F05EF8FB
:100D800040B1904BC0E9053403230374002343743E
:100D90008374C374884900234FF4C25209F08EFB58
:100DA0000BAA6821304608F0FDFF044690B10820E8
:100DB00001F044F840B1844BC0E9053403230374C7
:100DC000002343748374C3747B4900234FF4C252DD
:100DD00009F074FB0CAA0621304608F0E3FF044634
:100DE00090B1082001F02AF840B1784BC0E90534F1
:100DF00003230374002343748374C3746E49002374
:100E00004FF4C25209F05AFBDAF800305868089BD8
:100E10000D93012300930DAA0423002100F5DE7039
:100E20000BF098FA88B1062001F008F838B1684B49
:100E3000436102230374002343748374C3745E49C3
:100E400000234FF4825209F039FBDAF80030586879
:100E5000099B0D93012300930DAA0423002100F5A3
:100E6000F0700BF077FA88B1062000F0E7FF38B198
:100E7000584B436102230374002343748374C37487
:100E80004D4900234FF4825209F018FBDAF8003084
:100E900058680A9B0D93012300930DAA0423002197
:100EA00000F5EA700BF056FA88B1062000F0C6FF94
:100EB00038B1494B436102230374002343748374A4
:100EC000C3743D4900234FF4825209F0F7FADAF86F
:100ED000003058680B9BADF83430012300930DAA05
:100EE0000223002100F5F6700BF034FA88B10620D9
:100EF00000F0A4FF38B1394B43610223037400238F
:100F000043748374C3742C4900234FF4825209F054
:100F1000D5FADAF8003058680C9BADF8343001246B
:100F2000009402230DAA002100F5FC700BF012FAC8
:100F300030BB204608F006FFDAF80030586801257B
:100F4000009502230BAA002100F5C6700BF0E7F90B
:100F5000074600284AD0082000F070FF40B1204B1F
:100F6000C0E9053703230374002343748374C374F7
:100F7000114900234FF4C25209F0A0FA00243EE5C3
:100F8000062000F05BFF38B1164B43610223037467
:100F9000002343748374C374074900234FF48252BF
:100FA00009F08CFA062000F049FF00283FF458AE03
:100FB0000D4B4EE6A5E5001004D70010C3E5001068
:100FC000D6E50010E9E50010FAE500100BE6001088
:100FD00019E6001024E600102FE6001038E6001095
:100FE00072E6001046E6001051E60010BDF82C3005
:100FF0000393039A5107C3F3C003C2F3400411D50E
:10100000002C40D012F0010207D0002B41D02B461B
:1010100080460025174604950AE0002B3ED0134673
:10102000A846F6E77CB3002B3BD0034680460490ED
:1010300005935F4B0CAA40F22111304693F804B09F
:1010400008F0B0FE5A4BDDF830C01A79059B012A32
:101050002FD1B8F1000F4DD002215548FFF7BEFA4D
:1010600000220421304608F092FEDAF80030586879
:101070000123002100930DAA042300F53A700D917D
:101080000BF068F953E525467BB12346A04604944E
:10109000CEE72B46804600250492C9E71346A846B2
:1010A000F9E7034602468046F6E723462246A04675
:1010B000F2E7911E052964D8DFE801F0030E3650EF
:1010C000585F93B13A480321FFF788FA05220421BB
:1010D000304608F05CFE2AE527B104213448FFF7CA
:1010E0007DFA24E5B8F1000FB6D10CB90121B4E7BF
:1010F000002DFBD12E4B1B795B453FF418AD2C48DE
:101100005946FFF76BFABBF1010FA9D0BBF1060FEF
:101110003FF60DADBBF1040F13D8BBF1020F9FD00A
:10112000BBF1030FD2D002E5049B002BCAD1B8F16A
:10113000000F91D1002CD9D065B11D480521FFF7D2
:101140004DFA0023CDE900331A460321304600F062
:1011500035F88AE7039BDB05EFD4CBE7002CC5D03D
:1011600040F201431CEA030FC0D1C3E740F2014340
:101170001CEA030FBED00721B0E7039B13F0800FDA
:10118000F2E70820039200F059FE48B1094B436191
:101190000323039A03740023826143748374C3742A
:1011A000054900234FF4C25209F088F9A2E700BFB5
:1011B000B08E002091E6001004D700102DE9F04F0A
:1011C00093B000AF82467A72D7E91C06121122F062
:1011D0000F021343BB72030EFB72030C3B7307F148
:1011E0000802030A39727B7308210023BA6207F1EF
:1011F0002802C7E90433C7E90C33C7E91033B873D1
:10120000FB73BA6107F13803012207F1100878185F
:10121000C7E90E81C7E90832F962FA6108F0ADFD4D
:101220004FF0040BF873DAF8000007F1180108F02A
:101230008EFD0A200BF0D8FEDAF8000007F120013D
:1012400008F090FD0A200BF0CFFE3D7CBB7C7C7C3F
:10125000D7F813907B60F02D20D0FA7D3A6040469D
:1012600008F08BFD3A68824229D06C4688B06A4605
:10127000354B5361354B93614FF400739383344B7B
:1012800042F8103F33493448434600F02FFFA5464B
:101290006FF004004C37BD46BDE8F08FBBF1FF3F57
:1012A00012D1FF2D99FA89F811D1642C0FD1BBF11D
:1012B000040F0CD10EB1C6F800800020EAE7BBF1A4
:1012C000FF3FEED0002DECD10BF1FF3BABE70C2044
:1012D00000F0B4FD70B1214BC461C0E905357B68F5
:1012E000C0F828B0C0E9083807230374002343740A
:1012F0008374C374184900234FF4625209F0DEF876
:101300000EB1C6F80080F02D18D003D8002DBFD044
:101310000C2DBDD0062C0BD86CB1013C052C0AD885
:10132000DFE804F00F030F0F09036FF05E00B1E771
:10133000643C012CC1D94FF0FF30ABE76FF00A00DD
:10134000A8E76FF01500A5E749E400101DE70010BD
:1013500003000001401C80001CD7001038E700107B
:1013600030B51C4A01608DB05168044610686B4668
:1013700003C3684608F001FD082204AB0DEB02012F
:10138000CDE908120592069308AA0123CDE90A23A4
:101390008DF80700CDF810D007930625206806A920
:1013A00008F0D5FC64200BF0C0FC20680AA908F006
:1013B000D9FC9DF808300C2B09D0FF2B01D0013D42
:1013C000ECD1B3F1FF0018BF4FF0FF3000E0002078
:1013D0000DB030BD44D700102DE9F04F91B0840717
:1013E000009302F004030293C2F3C20303F101036A
:1013F000DDF86880039205460E46059340F0BA81F9
:10140000041D30B1072909D86FF01B0011B0BDE8E9
:10141000F08F01F007063444C6F10806009B4FF038
:101420000009591E4FF0040A4FF0FF330193CDF825
:1014300010904F46CB4653460DB1009A2260059856
:10144000002800F3E8809848009A824203D3974826
:101450008242C0F0E080039AA4EB050E92074FEAA7
:101460009E0000F103810F2F00F2B180002D00F0EB
:10147000058107F140020DEB020C019A0CF8200CDB
:101480000CF8102C049801300490E7E07A285DD81D
:101490004B280ED8472859D829282DD8252852D08E
:1014A00054D820287AD02338D0F1000B4BEB000B16
:1014B00074E04C382E2849D8DFE800F070484848DE
:1014C00048484848484848484B4848484848484899
:1014D0004859484B4B595959704B6D487048184BF7
:1014E000184848827F4B48484B487F0000204FF007
:1014F000000B4FF0040A38E02A38C0B2012202FA89
:1015000000F010EA0E0F49D110F0625C2FD110EA02
:10151000020B43D06046013C5444B4FBFAF40AFB8E
:1015200004F4002D61D0A3EB050CA444B4453FF6B0
:101530006BAF002868D1042B47D158F8043B2360D7
:10154000043404232AE0019A013A01924FF0000B7F
:1015500024E011F8010C6C2834D111F8023C002071
:101560006C2B8346C5D14FF0080A5346D3E708F1E8
:10157000070828F007080734F8E802AB24F007044E
:1015800035B106982044B0423FF63EAFC4E900AB07
:1015900008344FF0000B4FF0080A534611F8010FC2
:1015A000002878D0BBF1000F7FF470AF2528F5D16B
:1015B000019B013301934FF0010B4FF0040AECE75C
:1015C000584694E700208346A5E7082B02D06FF029
:1015D00015001BE708F1070828F00708F8E80223C0
:1015E000C4E9002308340823D8E768B9042B02D1E2
:1015F00008F10408A4E7082BE9D108F1070828F04E
:10160000070808F10808EDE7059A013A059258F82D
:10161000042B009210E7039A900720D5A4EB050E47
:101620004FEA9E004FF0010CBEF5007FCFD20F2F86
:10163000CDD8F5B107F140020DEB020EC0B2019A10
:101640000EF8200C0EF8102CBCF1000F3FF41AAF6E
:1016500060F07F000EF8200C09F101090137C5F197
:101660000802043406924FF6DA7E97E74FF0000C3A
:10167000DAE7BCF1000F01D00136EFE7029802363D
:101680000028EBD10098CDE90631FEF7CBFDDDE96E
:1016900006310644E2E7631BB3F5806F97D23DB98C
:1016A000A6F10804E018B1E674D2001060F800104A
:1016B000029A28609B082B709DF81030C2B1EB7025
:1016C00085F80290B9F1000F05D008A80022C5F1F5
:1016D000010C97420ED1C5F101030DF120084FF026
:1016E000000A01930DF1300B574512D1601B8DE6B6
:1016F0006B70E5E710F8013B190608D50CEB040EFA
:10170000B64503F07F033FF67FAE04F8013B01329C
:10171000DFE7B9F1000F03D098F90020002A17DBAA
:10172000029BD3B11AF80B2004F8012B0022019B75
:1017300018191044B0423FF667AE98F8000004F85C
:10174000010B0099039220460BF0EEFC039A14441F
:101750000AF1010A08F10108C6E798F8002055F8D7
:1017600022300093029B45F822300098FEF75AFD84
:10177000421CDCE76FF00D0048E600BF2DE9F04F9A
:1017800097B000AF90F802A0D7F880B03B62CBF3DF
:10179000C0030446FA62BB61894641B945780078C6
:1017A0000AEB800020444D4517D8A0EB0409E378EC
:1017B000FB61BAF1000F02D01BF0010F16D1FB69DB
:1017C00053BBFB6A1BB13A6A4946204698474D46CF
:1017D00028465C37BD46BDE8F08F461C3046FEF714
:1017E00021FD0130304409F10109DCE7237862680A
:1017F0007A62FA6A9900796104EB8301002A40F069
:1018000000814D460E4601EB0A094FF000084E4597
:101810004CD101EB0A0610E01BF0020FD1D0237867
:101820009A007A6162687A62FA6A04EB8301002A9C
:1018300077D14D4601EB0A0690461BF0050F0CBF11
:1018400002230123FB62FB6906EB430A0BF0020350
:10185000BB625645BCD016F8021B16F8013C54F882
:101860002390994B994502D3984B994536D3BB6940
:10187000002B40D0786A08F03AFB00283BD0E946BC
:101880008AB06A46924B53617B6AC2E906314FF4D3
:10189000007313848F4B42F8103F8F4800234FF49E
:1018A000125100F023FC023DCD46D2E716F8013B71
:1018B000F96254F82300FEF7B5FCD7F88430F96AD2
:1018C00001304BB1D7F8883098453EBFD7F8843007
:1018D00023F8180008F10108054498E7BB6923B113
:1018E000786A08F004FB0028C9D11BF0010F05D16C
:1018F000FB6AED1AADE7BB6A002BAAD04846FEF79B
:1019000091FCD7F8843053B1D7F8883098453FBF61
:10191000D7F88420431C22F8183008F10108054448
:1019200097E7BAF1000F72D01BF0040872D0D046CE
:1019300007F14800002652463B61B9620BF0F4FB08
:10194000B96A3B6901EB0A02BA62FA69F9695200A5
:10195000FA60BA6A02EB41023A610BF00202BA6025
:101960003A69B96A8A4257D162787A621BF0020FEB
:1019700032440CBF4FEA580100211BF0010FD2B2D4
:1019800040F09F801BF0040F14BF40460020BB6155
:101990006270A070E1703A6A7969FB6A20469847E4
:1019A000051EFFF615AFBB6923707B6A6370FB6988
:1019B000E37041463A6AFB6A84F802A007F14800E6
:1019C0009847B0F10008C0F2BB807B693A6AA9EB86
:1019D0000A01C91AFB68C91AD7E90A0398470028FF
:1019E000C0F2B080A84408EB00054FF0000B07F1EF
:1019F000380AB34572D300213A6AFB6A0846984711
:101A0000E6E6564607F138004FF0000893E7D04667
:101A1000564697E7464695E7BA6A12F8021BBA623D
:101A200012F8015C284A54F82500904202D3274A54
:101A300090421ED3BA6932B1786A7B6008F057FAD7
:101A40007B6800288CD1BA6802BB08F1280207F134
:101A5000300C08F10100944407F1580252FA80F06A
:101A600008F102080CF8101C5FFA88F800F8105C06
:101A700076E7BA693AB1786A7B6008F038FA7B6831
:101A800000287FF46DAF1BF0010F09D006F128028A
:101A900007F13000711C161806F8205CCEB25FE723
:101AA0001BF0040F3FF45CAF08F1280207F130008F
:101AB00008F1010102EB000808F8105C5FFA81F8F8
:101AC0004EE7002063E700BF74D2001060F80010FA
:101AD000A4E7001004000001D4D600101BF80A305F
:101AE00087F8373054F82390D7F884302BB3D7F8E1
:101AF00088309B4521D2D7F8843033F81B803A6A6E
:101B0000FB6A012107F13700984700281ADB0544DA
:101B1000B8F1000F06D14846FEF784FB00F101083A
:101B20001FFA88F83A6AFB6A4146484698470028F7
:101B300008DB05440BF1010B5BE74FF00008DEE723
:101B4000454645E6054643E6014B1860704700BF31
:101B5000E885002080B505460E461746984607F0F2
:101B60005DFB03460BF07CFBDFF81890044649F858
:101B70000030424630463946A84754F8090002F082
:101B80003DFC00BF0800000008B50446EFF31183D8
:101B9000202383F31288BFF36F8F0AF023F82046C7
:101BA00002F01AFC024808F0C9F909F0D6FAFCE77D
:101BB00058E800102DE9F047DFF858800446074642
:101BC0004FF0010914B93846BDE8F08794FAA4F53E
:101BD000B5FA85F509FA05F32E0108EB05156FEA4C
:101BE000030A24EA03042B7B002BEBD058F80630C1
:101BF0001B694BB94644042273682846196807EAF2
:101C00000A0700F05FFADDE7284698470028D9D197
:101C1000F0E700BF2CD7001030B51049104889B04C
:101C200000220BF051FA0F4D0F4900220023CDE99D
:101C3000062300240E23CDE90334CDE901440B4BE8
:101C400000944FF44072284606F0C8FF0849284621
:101C50000BF014F9204609B030BD00BF751C001010
:101C6000708B0020F886002058A20020691F001009
:101C700081E80010014806F0E5BD00BFE4860020C1
:101C80002DE9F04780461E480F4608F0D9FB06466E
:101C900078B300252846BDE8F087237B6BB1236825
:101CA000DB680BB12046984723681B69CBB9636892
:101CB00004221968204600F005FA013610344C451C
:101CC000EBD3B8F1000FE5D0002DE2D02846FFF7A6
:101CD00071FF0546002FF7D00021642007F080FA3D
:101CE000F2E7204698470028E1D00AFA06F31D43A0
:101CF000E3E7044CDFF8109005464FF0010ADEE7F9
:101D0000CC8E00202CD700103CD70010014B53F88C
:101D10002000704798E0001008B5034608462BB134
:101D2000044A136000F082FC002008BD6FF015002B
:101D3000FBE700BFEC85002010B5044C237813B9F5
:101D4000034806F07FFD0123237010BD4CA2002044
:101D5000E486002010B504460B4808F071FB5CB126
:101D6000BFF35B8F094B53E8001F013943E80012B2
:101D7000002AF8D1BFF35B8F05480BF0B1F9054895
:101D8000BDE8104006F05EBDC48E0020C88E002065
:101D9000708B0020E48600200020064BBFF35B8F91
:101DA000014653E8000F43E80012002AF9D1BFF3BF
:101DB0005B8F7047C48E002070B5FFF7EDFF084CB5
:101DC000084E0546B44200D370BD63685B792BB101
:101DD00023685B6813B12946204698471034F1E721
:101DE0002CD700103CD7001010B5044C04492046F5
:101DF00008F0ABF9034B1C6010BD00BFA8860020A3
:101E000084E00010BC8E0020084A094808B5002371
:101E10001370084A1360084A4FF47A711360FFF791
:101E20007BFFBDE80840FFF7DFBF00BF4DA20020E9
:101E30005BA40010C48E0020C88E00200146002242
:101E40000148002308F0A2B9A8860020014808F044
:101E500038BA00BFA8860020024B0146186808F077
:101E600084BA00BFBC8E0020014808F0B9BA00BF98
:101E7000A886002070B5254B1878002844D0FFF7BD
:101E8000E5FF054690B1BFF35B8F214B53E8001F80
:101E9000013943E80012002AF8D1BFF35B8F1D4CD3
:101EA0001D4EB44226D32846FFF7D6FF1B4B1C4CD1
:101EB0001B68002B12DD0BF005F90A220023FEF748
:101EC00097F9D4E90032C01A40F2E93361EB02011C
:101ED000984271F1000101D3FFF76EFFD4E900329F
:101EE00013F57A7342F10002C4E90032BDE8704094
:101EF000FFF7BABF63685B7923B1236829461B6883
:101F0000204698471034CCE770BD00BF4CA200209B
:101F1000C88E00202CD700103CD70010C48E0020A3
:101F2000688B002070B50D4D297861B90120FFF74D
:101F3000A7FE0B4C0B4EB44206D3FFF79BFF0028C5
:101F4000FBD101232B7070BD63685B791BB12368E3
:101F500020469B6898471034EDE700BF4DA2002053
:101F60002CD700103CD7001000212DE9F04708467F
:101F7000FFF786FE044658B34FF4FA784FF0000995
:101F80000BF06EF91B4B1C4A1B58136033B11B4BF3
:101F90001B68092B02DD1A4806F054FC194FDFF8C4
:101FA00060A0002544B12046FFF704FE044618B99E
:101FB0004FF0FF384FF0FF39FFF75CFF064628B9B6
:101FC000B5B942464B46504606F070FC3546E9E747
:101FD0004FF0FF384FF0FF39D2E72B689B691BB1F8
:101FE00000221146284698471035BD42F5D3E8E750
:101FF000054DFAE708000000C08E0020C88E0020C2
:10200000E48600203CD700102CD7001013B51848E8
:1020100008F016FA174B1B7873B1EFF311842023E5
:1020200083F31288BFF36F8FFFF724FF84F31188C7
:10203000BFF36F8F02B010BD0F4B1B68002BF9D0A0
:1020400050B900220023CDE900230C4842F210725F
:10205000002307F04DFBEDE70928EBD107480BF013
:102060003FF8074802B0BDE8104006F0EBBB00BFE8
:10207000C88E00204DA20020C08E0020708B002052
:10208000E486002010B5064B1B680446984721469D
:10209000A060044808F0F6F8BDE81040FFF7B6BFAE
:1020A000EC850020A8860020044A054B9B1AB1EB62
:1020B000D30F34BF52F8310000207047ACD6001067
:1020C0002CD70010084BC31A10B41B1144680133FD
:1020D000237143689A7143681960436801225A71F9
:1020E00010BCFFF729BE00BF2CD700102DE9F04F20
:1020F0008FB004AFC1F34A28B8600D4691467B60AB
:102100000C0DB8F1000F63D0002607F114034FF057
:10211000040B4FF00A0AC7F80C80C7E907667E6215
:102120000193CDF808B0CDF800A007F11C03F968C1
:1021300032464846FFF722FBB0F5006F03461CD33A
:102140006C468AB0D9F8041004AB2648C3E90501EF
:1021500040F2FF71D9611A464FF400711984224B85
:1021600042F8103F214833464FF41251FFF7BEFFAB
:10217000A5462C37BD46BDE8F08FC0F30A0804F130
:102180001700184420F0070080083B60FFF756FE58
:1021900068F35325044690B13B68154AC7E90836F1
:1021A00000F1100107F11403F961CDE900A3CDF8A6
:1021B00008B0F96807F11C034846FFF7DFFA68F337
:1021C00053257B68B9682A46204608F077F9D0E79E
:1021D00004F1170020F007008008FFF72FFE0446E7
:1021E000EDE700BF96E8001004000001ECD60010F7
:1021F00091A400102DE9F04F87B0DDE91279DDE9F7
:10220000105A04460391934698462FB3CDF8009098
:102210003B46524610210020CDF81490FFF7DCF821
:10222000B0F5006F064618D30820FFF707FE50B13F
:102230001B4B436140F2FF7383610323037400234C
:1022400043748374C374174900234FF4C45207B016
:10225000BDE8F04F08F032B93E4605F117003044B2
:1022600020F0070004F007048008FFF7E7FD0BF0FB
:10227000070BE40044EA8B1444EA462444EA05547C
:10228000054640B13FB1CDF800903B46524631463D
:102290001030FFF7A1F80399434622462846D6E7B7
:1022A000D5E80010ECD60010406820B1034BC01AEE
:1022B00040F3CF0070474FF0FF307047ACD60010AE
:1022C0000EB403B503AB014653F8042B0448019345
:1022D00002F0BEF902B05DF804EB03B0704700BF36
:1022E00025A50010CA0605D48B064CBF0249034938
:1022F000FFF7E6BF704700BF0EE900100DE90010C0
:102300002DE9F04F89B09B46149B06939DF84CA095
:10231000159B0593169B179E049304460D46904605
:10232000BAF1000F00F09D8006F48073079308F067
:10233000ADF806F00209024600283ED09149204639
:10234000FFF7BEFF0746B9F1000F08D016F0440FA3
:1023500035D18D492A462046FFF7B2FF074406F0E3
:10236000010353B1894B8A4953F82A20894B2046EF
:10237000002A08BF1A46FFF7A3FF06F48073002B5C
:1023800049D006F00803002B63D1B8F1000F66D0E6
:10239000814942462046FFF793FF0546069B3D4490
:1023A000002B6DD1049B002B73D1F30700F1E48067
:1023B00031462046FFF796FFD8E00746C3E7774B44
:1023C00018680028CAD0764B4FF47A791B68B5FBA1
:1023D000F3F54FF46161B5FBF0F300FB135509FB16
:1023E00005F54FF03C0CB3FBF1F201FB1231B5FBEC
:1023F000F0FEB1FBFCF300FB1E550CFB131109FBB7
:1024000005F50091B5FBF0F56649CDE901E52046FB
:10241000FFF756FFA2E706F00803EBB1624B6349F2
:1024200053F82A202046FFF74BFF0546B8F1000F6E
:1024300005D0594942462046FFF742FF0544BBF10B
:10244000000FABD05A495A462046FFF739FF0544E2
:10245000A4E74FF0000BE1E706F00805E6E7454684
:102460009CE7BBF1010F069B06D1002B64D1049BB6
:10247000002B7BD000250CE0002BF8D04D485CE011
:102480004D48069B4D49224607F000FD049B002B5A
:1024900068D0DFF82C81DFF82C91049F3146102F93
:1024A000204628BF1027FFF71DFF4FF0000B5D45AA
:1024B00045DC059B49461A782046FFF701FF4FF09F
:1024C000010B1BF0070F03D141462046FFF7F8FE32
:1024D0005F453BD9059B494613F80B202046FFF783
:1024E000EFFE0BF1010BBBF1100FEAD1364920468C
:1024F0004FF0000BFFF7E4FE5A46059B9A5CA2F1F1
:1025000020015F2928BF2E2230492046FFF7D8FE40
:102510000BF1010BBBF1100F1DD01BF0070F03D106
:1025200041462046FFF7CCFE5F455A46E5D8414676
:102530002046FFF7C5FEEBE71F485546A1E7414699
:102540002046FFF7BDFE0BF1010BB0E72049204606
:10255000FFF7B6FEC5E7059B3B440593049BDB1BD9
:1025600004939AD1BAF1000F7FF41FAF204609B04F
:10257000BDE8F04F07F0C9BF064A05492046FFF7FE
:102580009FFE15E715E9001019E90010A8E00010FA
:1025900049E4001010E900103EE90010D48E00203C
:1025A000D08E002022E90010BCE0001042E90010AB
:1025B00048E900105BA5001025A500105146001049
:1025C00055E900104DE9001057E9001059E90010D5
:1025D00053E9001073B542F20F738B4228BF0B46CC
:1025E00005680F4A04460521684607F0EDF8636860
:1025F0000C495B6806460B22284607F078FF6368A3
:102600003246694628465B6807F071FF63680649F1
:102610005B681B22284607F06AFF02B070BD00BF4E
:102620008EE6001078E900105CE90010074A0021EE
:102630000123904206D8064A01B901231360054BD5
:102640001860704740085B000121F2E740420F002C
:10265000D08E0020D48E0020F8B5074F0D460446DA
:102660004618B44201D12846F8BD14F8011BBB68D6
:1026700001485B689847F4E7FCD200104FF08043B4
:102680009A6802F46062B2F5206F32D014D8B2F5C5
:10269000C06F31D0B2F5006F18D01A4B1A49B2F59D
:1026A000806F18BF0B464FF080429268C2F38212CF
:1026B000D340164A13607047B2F5406F1ED0144BDA
:1026C0001149B2F5606F18BF0B46ECE7114B1A6861
:1026D00012F030020BD0104B0B49102A18BF0B46DA
:1026E0004FF080429268C2F38132D340DBE70B4B5C
:1026F000F6E74FF4E103D6E7094BD4E74FF4004384
:10270000D1E700BF0000770100E1F505F885002062
:10271000C06878040068104080F0FA0220BCBE0057
:102720008038010038B54FF0E02318499C691A69D8
:1027300022F480320A601A69D2075BBF6FF07F44CF
:1027400005225D695C615CBF9C611A61104B114A96
:1027500019684FF00003A0FB010154BF4FF08075D2
:102760000135FDF745FD0C4BB0FBF5F205FB120002
:1027700084421A609FBF1A6801321A602D19074BF4
:1027800094BF281A201A186038BD00BF008F00209F
:10279000F885002040420F00FC850020048F0020B7
:1027A00010B50B4A0B4C11602268002A0DDC50B1A9
:1027B000FFF7B8FF2368002BC1BF4FF0E022136979
:1027C00043F002031361002010BD6FF00500FBE72A
:1027D000FC8E0020FC85002010B5094C236823B135
:1027E0006FF00F00984700232360064B1A684FF0E4
:1027F000E0231A61044B4FF0FF321A6010BD00BF96
:10280000FC8E0020008F0020FC85002010B5114CAC
:102810002268002A1ADC78B1FFF784FF4FF0E0222B
:102820002368002B0ADC0C4B1B684FF0E0218A69FF
:102830009A42FCD8FFF7D0FF002010BD1369DB03DC
:1028400042BF236803F1FF332360E9E76FF005001F
:10285000F3E700BFFC850020048F00203F2808D943
:102860000B4A4038516AC0B2012383400B43536284
:1028700070471F284FF0804207D92038916CC0B2B2
:10288000012383400B4393647047516AECE700BF18
:10289000006C10403F2809D90E4940384B6AC0B23D
:1028A0000122824023EA02034B6270471F284FF047
:1028B000804308D920389A6CC0B20121814022EAB5
:1028C00001029A6470475A6A0121814022EA01029A
:1028D0005A627047006C1040072808B508D80228D3
:1028E00009D90438032826D8DFE800F00814311D80
:1028F000B0F5806F22D06FF0020008BD4FF080422B
:102900004FF00060936843F400239360BDE80840F3
:1029100007F0B3BE4FF080424FF08050936843F40D
:1029200080139360F2E7104808F0D9F80028E4D14A
:102930004FF00040EAE74FF00050E7E74FF08042E9
:102940004FF08070936843F480339360DEE7074B69
:102950009A6822F480329A609A6842F400329A604F
:102960004FF00070D2E700BF04E10010006C10408F
:1029700038B54FF0804307289D6808D8022809D948
:102980000438032875D8DFE800F008337C4BB0F535
:10299000806F58D06FF0020453E04FF080439A6884
:1029A000140318D54FF08042936823F4606343F416
:1029B000006393604FF4005007F05FFE0446002868
:1029C00076D04FF0804205F46065936823F460632D
:1029D0002B43936009E09A6842F400229A604FF01A
:1029E000006007F04AFE0028DCD06FF0090428E000
:1029F0004FF080439A68D00207D54FF08042936829
:102A000023F4606343F42063D3E79A6842F48012AE
:102A10009A604FF0805007F030FE0028EDD0E4E7D8
:102A20004FF0004007F029FE28B94FF0804293682C
:102A300043F46063BDE70720FFF74EFF044600281C
:102A4000F3D0204638BD9A68D10307D54FF08042B5
:102A5000936823F4606343F48063AAE79A6842F4BE
:102A600080329A604FF0807007F007FE0028EDD0AA
:102A7000BBE74FF08042936823F4606343F4C06384
:102A800097E70D4B9A68920307D54FF08042936801
:102A900023F4606343F440638BE79A6842F40032A6
:102AA0009A604FF0007007F0E8FD0028EDD09CE739
:102AB000FFF7E4FDC5E700BF006C1040014800F0DF
:102AC00003B800BF00800240044BC01A18BF4FF08B
:102AD000FF30034B002243F8202070470080024063
:102AE0005C8F00200328F8B517D814230E4E03FB83
:102AF00000F57719735983B10C48012107F0AAFD3D
:102B0000044668B9FB6870511860FB6807485A684A
:102B10005A6007F0ADFD2046F8BD6FF00204FAE7F9
:102B20006FF00504F7E700BF0C8F0020088F00202E
:102B300010B50C4611461A4640B9064800F08CF80C
:102B400021460448BDE8104000F0E4B96FF00200EF
:102B500010BD00BF0040064040B929B14B1E012BFB
:102B600004D8044800F0A2B8084670476FF002008D
:102B7000704700BF0040064010B9034807F0D9BDB8
:102B80006FF00200704700BF0040064010B90348D4
:102B900007F0DBBD6FF00200704700BF0040064049
:102BA00010B9034807F0D8BD6FF00200704700BFAE
:102BB00000400640014B186840087047F885002027
:102BC00010B9034807F0CFBD6FF00200704700BF97
:102BD0000040064010B9034800F09AB86FF00200B8
:102BE000704700BF0040064010B428B9886838B963
:102BF000054810BC07F0F9BD6FF0020010BC70472B
:102C00006FF01000FAE700BF0040064028B90B68DB
:102C10009B682BB9044800F045BA6FF0020070477A
:102C20006FF01000704700BF0040064010B9034825
:102C300000F074BA6FF00200704700BF0040064019
:102C4000024618B90146034800F096BA6FF0020038
:102C5000704700BF0040064010B50E4C041B18BF63
:102C6000012463420C4840F823200C4A0C4842F8E7
:102C700023106FF003035C43204407F0F9FC09487C
:102C8000204407F0F5FC0848204407F0F1FC002040
:102C900010BD00BF00400640C08F0020BC8F002048
:102CA000AC8F0020B08F0020608F002038B5174D0A
:102CB000451B18BF4FF0FF35012904461AD1837810
:102CC0005A071FD4C378EBB990F83430D3B990F8D1
:102CD0002930BBB12846FFF773FF237843F0800308
:102CE000237023781B06FCD50021284607F0F7FC4B
:102CF000002038BD0229FBD1037803F07F03037065
:102D00000121F2E76FF00600F3E700BF0040064044
:102D1000F0B57E4D451B18BF4FF0FF3511F0F004A4
:102D200001F00F0650D1052E43D8DFE806F0031D51
:102D30004242031D7649077851F8251047F00407F1
:102D40004C1C64010770002E43D0012946D8402C4A
:102D500000F0978052D8202C00F0AA80302C6AD046
:102D6000102C2AD1002467E0694B53F825400378E2
:102D700043F004036401037001F00B0101291CD12D
:102D8000634B53F825304BB3402C00F0B68000F273
:102D9000A780202C04D0302C00F0AF80102C0CD158
:102DA000027802F0FE020270002202828282013B5F
:102DB0005EE0037843F004030370037803F0FB0341
:102DC00003706FF002000FE0077847F00407077008
:102DD0005EB94F4B53F8251001290CD9037803F045
:102DE000FB0303706FF00D00F0BD042EC4D1484901
:102DF00051F82510A9E74FF0FF33A8E7502C59D020
:102E0000602CDAD1047844F001040470D402C2F3D7
:102E1000475604F47F04344344EAC264C2F35712B1
:102E200002F47F4222430261DA43D20042F00402FC
:102E300012BA42611BE00124067800EB44045201FF
:102E400052BA06F0FE0606702282DA43520192B2AE
:102E500042F010031B0243EA12239BB2A382437D7C
:102E600043F00F034375C37D43F00F03C3754B1C41
:102E7000274A42F82530037803F0FB030370002053
:102E8000B2E70124067806F0FE060670C2F3475644
:102E9000520B46EA022600EB4402DC43C4F34753DC
:102EA000640B43EA0423B6B29BB216829382DEE738
:102EB0000024E7E70478520144F0010452BA047098
:102EC0000282DA43520192B242F010031B0243EA3B
:102ED00012234FF6FF749BB283824482C482C6E7FA
:102EE000502C02D0602C7FF468AF027842F00102CF
:102EF000027000220261426159E7027802F0FE028C
:102F0000027000224282C28251E700BF00400640A8
:102F1000B88F002070B5174E861B18BF4FF0FF36D4
:102F2000022904460D4617D8D9B102213046FFF7D1
:102F300013FE237843F004032370237843F0400307
:102F4000237094F8243043F0040384F82430237869
:102F500003F0FB03237008E00429E6D06FF00200C1
:102F600070BD01213046FFF7F7FD034B00209D5552
:102F7000F6E700BF004006404FA200202DE9F84FC1
:102F800099469DF828A0074690460B46002900F078
:102F90008180002A7ED0BAF1000F06D1028E92B253
:102FA000002A45D16FF0060040E03D4A1468012632
:102FB000C4F3001204F00F00C4F3401114F0800FAA
:102FC000DA60586199604FEA14254FEA144234D010
:102FD0006D05520305F0FF5502F4FF121543240E50
:102FE00045EA441545F000451D60BAF1000F22D0B6
:102FF0002B4C721C54F82640D6B2C4F3C4022A43A8
:103000001A60C4F380025A600125C4F34002D3F869
:1030100004B01A61BBF1000F3FD15A4607F06BFBB9
:103020001F4902464FF0FF0C934515DBBDE8F88FB2
:10303000C4685646BCE7FC68DFE7ED00C2F3421205
:1030400005F4FF651543C4F3801C1D60C3F804C07C
:10305000C4F3C0420325DAE735B9BAF1000F17D03F
:10306000731C51F82640DEB2D9454B4609DD4FEAC4
:10307000C50E0CFA0EF3234023FA0EF308F80B30BA
:103080000346013505F003050BF1010B1846CBE7AC
:10309000FC68E9E74FF0FF30C8E70020C6E700BF53
:1030A000648F00201B4BC31A18BF01232DE9F04188
:1030B0000646C3F100080C4629B3174F6FF0030210
:1030C00002FB03770121384607F0C4FA0546E8B948
:1030D000D4E90012237A4046FFF786FD041E05DA84
:1030E000384607F0C5FA2046BDE8F0812A4634216B
:1030F0004046FFF755FD2A4634214046FFF73CFD88
:1031000004237370EFE74FF0FF34ECE76FF0060431
:10311000E9E700BF00400640AC8F0020134BC31A04
:1031200018BF012370B55E420D46C1B1104A6FF061
:103130000300012100FB032007F08CFA044688B944
:103140000C4B02463921304643F82650FFF728FD44
:10315000224639213046FFF70FFD204670BD4FF063
:10316000FF34FAE76FF00504F7E700BF00400640C0
:10317000B08F0020B48F00202DE9FF41514FC71BB5
:1031800018BF01277C420546884616460DF10E0100
:103190000DF10F022046FFF7F9FC9DF80F209DF876
:1031A0000E102046FFF7FCFC9DF80E30B8F1000F22
:1031B00005D026B19DF80F2088F8003032709806AF
:1031C0001AD5AB78D90710D50421204607F087FA25
:1031D0003D4B53F824202AB16FF0030000FB073069
:1031E00007F046FA6FF0080051E0AB789A0703D574
:1031F0000221204607F073FA9DF80E30DB0609D550
:10320000AB7E802B02D86B7E802B43D903212046D6
:1032100007F065FA9DF80E305E070DD52B7958073B
:103220000AD5294B6FF0030000FB073007F020FAA6
:103230000021204607F059FA9DF80E30190721D5D4
:103240002B79DFF888801A0758F8240024D4C8B1F5
:103250001F4B53F824306FF00306D3E900121B7A9A
:103260007E43012000902846FFF788FE08EB060009
:1032700007F0FEF91748304407F0FAF9012120461B
:1032800007F033FA9DF80E30DB0715D4002004B0A8
:10329000BDE8F0810121BAE70D4B53F824306FF0FF
:1032A0000306D3E900127E431B7A0028D9D100908F
:1032B0002846FFF763FEDDE70221204607F015FAF6
:1032C000E4E700BF00400640AC8F0020608F002084
:1032D000B48F0020B08F0020024B53F8203003B190
:1032E00018477047BC8F0020024B53F8203003B1C1
:1032F00018477047C08F002008B50B4B984207D184
:103300000B2007F0D9F90920FFF7A8FA002008BD23
:10331000064B984204D10C2007F0CEF90A20F3E7BF
:103320006FF00200F3E700BF0020044000300440CB
:10333000164B10B504469C42084603D003F5805353
:103340009C4216D105236361032A12D8DFE802F0FC
:1033500014021A180E490246204607F0F5FA002812
:1033600009DD236843F40043236023681B03FCD575
:1033700001E06FF0020010BD064B19684908EAE74A
:103380000549E8E74FF4E101E5E700BF002004400C
:10339000C0687804F88500200000770108B50D4B5F
:1033A000984203D003F58053984210D103290ED8D8
:1033B000DFE801F00207090B002100F00DF8002002
:1033C00008BD0121F9E70221F7E70321F5E76FF0D6
:1033D0000200F5E700200440164B984217D003F591
:1033E000805398420CBF01234FF0FF33124AD35C45
:1033F0005BB90368090413F4004F01F4403103681A
:1034000007D123F440330B430360002070470023AF
:10341000ECE723F400430360036823F440330B43D9
:103420000360036843F40043036003681B03FCD597
:10343000EBE700BF0020044050A2002010B5054C6F
:10344000217829B90448802209F096FE01232370CF
:10345000002010BD53A20020C48F0020014B18781B
:10346000704700BF52A2002070B4114EB042DDE997
:10347000035410D006F58056B04205D0012B11DD63
:103480006FF0020070BC7047012BF9DC094E366802
:10349000A64207D2F4E7012BF2DC064E3668B4EB05
:1034A000560FEDD8CDE9035470BC00F02FB800BF23
:1034B00000600440F885002010B5044600F096F83E
:1034C000074B9C4204D10720FFF7C8F9002010BD2C
:1034D000044B9C4201D10620F6E76FF00100F6E7AD
:1034E0000070044000600440064B984203D003F58E
:1034F0008053984203D1044B1868400870476FF01E
:103500000200704700600440F88500202DE9F04774
:103510001D46334BDDF8209098420446904607D074
:1035200003F5805398423ED06FF00200BDE8F0876B
:103530004FF0000A2B4E282707FB0AF7F01900234B
:103540000122C0E90323C0E90733F35183606FF020
:103550000103C0E90533244B80F827206260236112
:10356000636819B343F0020363600999204607F0CA
:10357000E1FBB9F1FF0FD7D8E36843EA0943E36001
:10358000236A2362282303FB0A6696F827302BB1AF
:10359000012D0ED1636843F480336360B8F1000FEE
:1035A00019D10020C2E74FF0010AC3E723F002035C
:1035B000DAE7022D03D1636843F44033EDE7032DCE
:1035C00003D1636843F4E023E7E7042DE6D16368A1
:1035D00043F47023E1E7E36843F40053E360E0E77A
:1035E000006004404490002001010100244B9842F7
:1035F0002DE9F041044641D0224EB0420CBF0126D5
:103600004FF0FF3600236362236A236263681E4D16
:1036100023F001036360E3692827774323F0401315
:10362000E36155F80780E819B8F1000F08D007F0FA
:103630001FF8EB595B6A1BB16FF00E0140469847CB
:1036400000236360A360E3602361282404FB065425
:103650006069984204DBFFF745FA6FF0010363618C
:10366000282303FB0655A869002804DBFFF73AFA74
:103670006FF00103AB610020BDE8F0810026C1E7D7
:1036800000600440007004404490002038B51A4B9C
:103690001B68B1EB530F04460D462AD8FFF724FFF1
:1036A000B0FBF5F14B08CA074CBF5A1C1A46002163
:1036B0000F2A08DD082902D10F231A4605E052100F
:1036C0005B100131F4E70829F6D06069DBB220F025
:1036D000FF0003436361636923F47F4343EA0223EA
:1036E0006361636923F4702343EA0143636100204B
:1036F00038BD6FF00200FBE7F8850020012910B506
:103700002FD010292DDC1A4B984228D0194A90420C
:103710000CBF01224FF0FF32036BDB0724D4164BA2
:10372000282404FB0233DA68012A1DD1426822F002
:10373000010242609960C36810291FBF090201F4A9
:10374000706123F4706319430ABF23F47063C1608E
:10375000C360436843F001034360002010BD0022B2
:10376000DAE76FF00200F9E76FF00600F6E700BF56
:10377000006004400070044044900020002920DCD8
:1037800043689B0720D5124B98420FD003F5805316
:1037900098420CBF01234FF0FF330E4A282101FB52
:1037A000032393F827301BB9002070470023F4E768
:1037B000436843F480334360436823F460234360E9
:1037C000F2E76FF0020070476FF00600704700BF2D
:1037D00000600440449000200A4B984210D003F54A
:1037E0008053984214BF4FF0FF300120064B28222F
:1037F000003902FB003318BF012183F827107047FE
:103800000020F3E700600440449000200D4B9842F4
:1038100010B504460AD10D20FFF720F8102006F05D
:103820004BFF2046BDE8104000F07CB8064B9842A4
:1038300004D11C20FFF712F82020F0E76FF0010000
:1038400010BD00BF00D0014000E001402DE9F0476D
:103850000D469146044600285AD02F4B984241D03D
:1038600003F5805398420CBF4FF001084FF0FF382A
:103870001021204607F03FFB074680BB2368DFF896
:1038800098A0264E43F001032360204607F027FB53
:10389000204607F026FB0221204607F030FB0621D8
:1038A000204607F02AFB05BB2A464946204607F07A
:1038B00008FB544505D01A4DAC4214BF4FF0FF35FC
:1038C000012506EB451500236B6006EB48136FF0EE
:1038D0000102C3E9022200221A611A765A613846AF
:1038E000BDE8F0874FF00008C2E72368544543F075
:1038F000020323600AD00A4B9C4214BF4FF0FF34EE
:10390000012406EB441401236360DEE73C46F8E73C
:103910004FF0FF37E3E700BF00D001409490002054
:1039200000E00140F8B5044600283CD01F4B984207
:1039300023D01F4DA8420CBF01254FF0FF350021B9
:103940002160E1606161A3681A4EA360236923616D
:103950006F0106EB4515E161202221622846616274
:10396000A16209F009FC204607F0B9FA204607F0E9
:10397000B8FA2B7E1BB90020F8BD0025DFE7FFF762
:103980009DF8A868002804DB06F0A7FE6FF001038D
:10399000AB603E44F0680028EDDB06F09EFE6FF061
:1039A0000103F360E7E74FF0FF30E5E700D00140A7
:1039B00000E0014094900020002844D0234AA1F563
:1039C00074236FF4107C6344934238D2204B1B68FD
:1039D0005B08B3FBF1F103234A00B2FBF3F2B1FB46
:1039E000F3F3C90758BF03F1FF330F2B02F1FF3286
:1039F00002DD6FF0020070470F2AFADC1B029BB257
:103A0000D2B21A43C2630368124943F4004303600D
:103A10000F4B1B685B08B3FBF1F35A0813F0010F5F
:103A200002F1FF3108BF0A46B2F5007FE1D200295A
:103A3000DFD0C1F308014163826307F046BA064B49
:103A40009942E5D9D5E74FF0FF307047009F240039
:103A5000F8850020801A060040E1330003681B044B
:103A60000CD5C26BC36BD2B20232C3F3072313442B
:103A7000074A10684008B0FBF3F07047436B826B55
:103A8000C3F30803C2F3080213440233F0E700BF94
:103A9000F88500202DE9F04105460C46002957D055
:103AA0000A20D1E900878E68FEF7C8F950B1374B7C
:103AB000C0E90776C0E90538052303740023437481
:103AC0008374C374324900234FF4215206F0F6FC8C
:103AD0000A20D4E903876669FEF7B0F950B12D4B8F
:103AE000C0E90776C0E90538052303740023437451
:103AF0008374C374264900234FF4215206F0DEFC80
:103B00000820E669FEF79AF940B1234BC0E9053673
:103B100003230374002343748374C3741C49002378
:103B20004FF4C25206F0CAFC0820A669FEF786F9D7
:103B300040B11A4BC0E905360323037400234374D4
:103B40008374C374124900234FF4C25206F0B6FCCA
:103B5000012D15D1EFF305860820FEF76FF948B166
:103B60000F4B43610323103E0374002386614374AB
:103B70008374C374064900234FF4C25206F09EFCBE
:103B800021462846BDE8F04104F0F4BBBEE9001030
:103B90000CD70010EDE900101CEA00102BEA001011
:103BA00059EA001030BFFFF7FDBF00BF2DE9F0411B
:103BB0000B4EDFF8308006EB0807CC1B054632467B
:103BC0000949204609F0B0FAA01942460021083CF4
:103BD00009F0D2FA6C6607F10800BDE8F08100BF79
:103BE00000000000040000003CD70010074A936862
:103BF00093F90E10002907DB526993421FBF044A54
:103C0000536843F080535360704700BFC0A1002049
:103C100000ED00E008B50620FEF710F938B1514B71
:103C2000436102230374002343748374C3744E49B5
:103C300000234FF4825206F041FC4C4B9B6A9901E1
:103C400040F18E800620FEF7F9F838B1484B436109
:103C500002230374002343748374C3744249002312
:103C60004FF4825206F02AFC1E20404B9B6ADA0178
:103C700012D50620FEF7E2F838B13E4B436102232D
:103C80000374002343748374C374374900234FF4CF
:103C9000825206F013FC1F20344B9B6A1B0312D583
:103CA0000620FEF7CBF838B1334B4361022303748F
:103CB000002343748374C3742B4900234FF482524E
:103CC00006F0FCFB2120294B9B6A590312D50620E4
:103CD000FEF7B4F838B1294B436102230374002383
:103CE00043748374C374204900234FF4825206F056
:103CF000E5FB22201D4B9B6A9A0312D50620FEF796
:103D00009DF838B11E4B43610223037400234374B2
:103D10008374C374144900234FF4825206F0CEFB1F
:103D20002320124B9B6ADB0312D50620FEF786F890
:103D300038B1144B4361022303740023437483742A
:103D4000C374094900234FF4825206F0B7FB2420C4
:103D5000064A936A6FEA03436FEA1343936208BD0E
:103D60001D2082E76CEA00100CD7001000ED00E087
:103D700084EA001097EA0010B1EA0010CFEA0010C0
:103D8000F4EA00100EEB001070B5054606200C4654
:103D9000FEF754F838B1604B4361022303740023EB
:103DA00043748374C37400234FF482525B4906F05A
:103DB00085FB5B4B9B6ADA0440F196800620FEF798
:103DC0003DF838B1574B4361022303740023437419
:103DD0008374C374514900234FF4825206F06EFB82
:103DE00017204F4B9B6A1B0512D50620FEF726F8BD
:103DF00038B14D4B43610223037400234374837431
:103E0000C374464900234FF4825206F057FB182032
:103E1000434B9B6A9E0530D50620FEF70FF838B15C
:103E2000424B436102230374002343748374C374BD
:103E30003A4900234FF4825206F040FB384B9E6B08
:103E40009B6A190418D50820FDF7F8FF40B1384BDC
:103E5000C0E9053603230374002343748374C374D9
:103E60002E4900234FF4C25206F028FB25B12C4AFC
:103E7000936A23F4004393621920294B9B6A5A05E5
:103E800012D50620FDF7DAFF38B12A4B4361022331
:103E90000374002343748374C374204900234FF4D4
:103EA000825206F00BFB1A201D4B9D6A15F480759B
:103EB0001CD00620FDF7C2FF38B11F4B436102231F
:103EC0000374002343748374C374144900234FF4B0
:103ED000825206F0F3FA1B20114A936A43F47F439F
:103EE00093620023237070BD16207AE79B6A9B04BF
:103EF000F2D50620FDF7A2FF30B1104B436102233B
:103F0000037445748574C574044900234FF48252C8
:103F100006F0D4FA1C20DFE739EB00100CD70010B4
:103F200000ED00E04FEB001060EB001073EB0010B1
:103F30008CEB0010A1EB0010BCEB0010D4EB0010D8
:103F400070B5054606200C46FDF778FF38B15A4B90
:103F5000436102230374002343748374C3740023F6
:103F600056494FF4825206F0A9FA554B9B6AD8067F
:103F700040F1A0800620FDF761FF38B1514B43614D
:103F800002230374002343748374C3744B490023D6
:103F90004FF4825206F092FA1120494B9B6A19079E
:103FA00012D50620FDF74AFF38B1474B4361022383
:103FB0000374002343748374C374404900234FF493
:103FC000825206F07BFA12203D4B9B6A9A0730D54D
:103FD0000620FDF733FF38B13C4B436102230374E5
:103FE000002343748374C374002334494FF4825212
:103FF00006F064FA324B5E6B9B6A1B0618D50820EC
:10400000FDF71CFF40B1324BC0E9053603230374B2
:10401000002343748374C374284900234FF4C252AD
:1040200006F04CFA25B1264A936A23F08003936286
:104030001320234B9B6ADE0712D50620FDF7FEFEF8
:1040400038B1244B43610223037400234374837407
:10405000C3741A4900234FF4825206F02FFA142039
:10406000174B9B6A9D0612D50620FDF7E7FE38B177
:10407000194B436102230374002343748374C37494
:104080000E4900234FF4825206F018FA15200C4B0B
:104090009A6AD10658BF9A6A9A6A920642BF5A6AC9
:1040A00022F400525A629A6A42F0FF029A62002396
:1040B000237070BD102070E703EC00100CD70010C7
:1040C00000ED00E019EC001060EB00104CEC00106B
:1040D00064EC00107AEC0010D4EB00102DE9F041F4
:1040E0009A4B8AB0D3F8048000AF0446C8F30806A0
:1040F000002585F31188BFF36F8F02F07F43B3F182
:104100007F4F14D102F00C03082B24D10620FDF7B9
:1041100095FE30B18E4B4361022303744574857460
:10412000C5748C4900234FF4825206F0C7F900256C
:104130002C460023FB71F31E092B00F2E580DFE81B
:1041400013F00F00CE00D100CA00E300E300E3004B
:10415000E300E300D40012074CBF0C460125E8E75A
:104160000620FDF76BFE38B17B4B436102230374DD
:10417000002343748374C374002376494FF482523E
:1041800006F09CF94FF00008704B87F80780DE6A54
:1041900016F0020615D00620FDF750FE48B16F4B11
:1041A00043610223037480F8118080F8128080F844
:1041B0001380684900234FF4825206F07FF90023F0
:1041C00059E0DA6A002A0CDA0620FDF737FE0028EB
:1041D000EFD0634B43610223037446748674C67444
:1041E000E7E7DB6A5B00EAD50620FDF727FE30B182
:1041F0005C4B43610223037446748674C67455494C
:1042000000234FF4825206F059F9504BA1695A69C4
:1042100042F480725A61BFF34F8FBFF36F8F5A69B8
:1042200031F8021C22F480725A61BFF34F8FBFF342
:104230006F8F4DF60272914208D09A6AD2B2002A6C
:104240003BD0F91D0120FFF77BFE46E008202668E1
:10425000FDF7F4FD40B1444BC0E905360323037478
:10426000002343748374C37400233A494FF4C25249
:1042700006F024F92368FA79DAB907F1080604F19F
:10428000200C20686168324603C208346445164633
:10429000F7D17A6A002D53D0C2F3080121B96FEA31
:1042A00052226FEA42227A6207F108011846FFF7AC
:1042B000F1FB2837BD46BDE8F0819A6A12F47F4FC2
:1042C00004D0F91D0120FFF75FFD06E09B6AB3F5FE
:1042D000803FFFF474AFFFF79DFC0346CBE7F91D69
:1042E0000020B0E7F91D0020EDE70620FDF7A6FD50
:1042F00000283FF45EAF1D4B43610223037400238B
:1043000043748374C37454E7194A1A4B18F4F87F42
:10431000E8468AB018BF13466A461749C2E9051332
:104320004FF400731384103E144BD66142F8103FD3
:10433000084800234FF41151FDF7D8FEC5463EE76B
:1043400022F4FF7222F00102ADE700BF00ED00E0B1
:10435000C7EC00100CD70010F2EC001009ED0010B3
:104360002AED001038ED001057ED001073ED00102D
:10437000AEEC001099EC001097ED00100400000165
:10438000044B5A6942F010025A615A6922F008023D
:104390005A61704700ED00E0EFF30880EFF3098108
:1043A00001B57246FFF79AFE01BD00BF202080F3E1
:1043B000118808484FF40061401880F30988EFF332
:1043C00014800221084380F31488BFF36F8F00F03C
:1043D000A7F8000058AD0020BFF34F8F0549064BEA
:1043E000CA6802F4E0621343CB60BFF34F8F00BF93
:1043F000FDE700BF00ED00E00400FA05084B9B68F4
:1044000083420BD1EFF3058343B1064B5A6842F068
:1044100080525A605A6A22F400425A6208F0F5BD8E
:10442000C0A1002000ED00E0094A93686FF00A0186
:10443000D966084998664B6843F080534B60002367
:1044400083F31188BFF36F8F9368D86E704700BFF6
:10445000C0A1002000ED00E012498A684FF0300052
:104460001044EFF3098C80E8F01F202080F31288BD
:10447000BFF36F8F0C4F4FF000664A698A603E6051
:104480004FF0640414192068084C2060906E0023DB
:10449000936680F3118802F1300090E8F01F8CF3EE
:1044A00009887047C0A1002004ED00E0D4900020EE
:1044B0001EF0040F0CBFEFF30880EFF30980816951
:1044C00011F8021C0229FFD001B5724606F02FFE3A
:1044D00001BD00BF40B2002807DB044A41090123A7
:1044E00000F01F00834042F82130704700E100E0F7
:1044F00040B20028A8BF00F1604001F10101B8BF3F
:10450000064B4FEA4111ACBF00F5614000F00F00CF
:10451000C9B2B4BF195480F80013704714ED00E01D
:104520000F4A08B50F4B22F07F029A60BFF34F8FFE
:10453000BFF36F8FD3F8882022F47002C3F888206D
:10454000EFF3148323F0040383F31488BFF36F8F16
:1045500004F008F804F000FF00F048F804F042F816
:104560000000001000ED00E042F8203C009B42F803
:104570001C3C0A49019B42F8183C029B42F8143C3F
:1045800021F001014FF0807342F8043C42F8081C0E
:104590000023203A02658366704700BF551B001058
:1045A00000B50B4B98600B4B1546426E1A600E46D9
:1045B0002C4686F309884FF00000074B98472046A9
:1045C0004FF000014FF000024FF00003034C204772
:1045D000C0A10020D49000204DB10010551B001048
:1045E000014B10221A61704700ED00E004480023DF
:1045F0002021C21801336C2B82F80013F9D17047C7
:1046000000E100E008B5EFF30583064A103B02EB3A
:10461000C30152F8330049688847BDE80840FFF7F6
:10462000E5BA00BF4CD3001008B5024B1B68984791
:10463000002008BDD8900020034B044A18609378EE
:1046400043F0020393707047D8900020008600204A
:10465000F0B587B007460E46144600211022684682
:104660001D4608F089FD02238DF802302A46054BCD
:10467000019321466846CDE9047605F0D1F807B0EC
:10468000F0BD00BF7DB1001008B50649064821F015
:104690000701C1F1005202F5404205F0BAFB0020CB
:1046A00008BD00BF9FBE0020DC9000202DE9F04730
:1046B00088B002AF1E46D0F808A0BB6B05469046F6
:1046C0000C4631B362790968D20706D5B1F1005FB3
:1046D00025D3274C1D20082305E0B1F5006F1ED31C
:1046E000244C0B2003236D468CB002AA224E51624B
:1046F000C2E907034FF400731385204BC2E9056438
:1047000042F8103F1E4800234FF45151FDF7EEFCD4
:10471000AD466FF015001837BD46BDE8F087E3B928
:1047200007F1040919460122484608F057FB154BCA
:104730000093CDF80490DAF814A04246334621469F
:104740002846D0470028E6D14FF0FF324FF0FF3324
:10475000484604F0ABF87869DDE7FA6BCDE9003242
:104760002146DAF81490424633462846C847D2E735
:10477000AAED0010B3ED0010BCED00100600000122
:10478000ACD6001093B10010F8B5856800AF41B306
:104790003BB31C7A1E6814F0010F5C6825D0B6F19B
:1047A000005F02D2B4F1005F29D316481D2108230F
:1047B0006D468EB06A46DFF850C0D462C2E9071376
:1047C000C2E909634FF400731386104BC2E905C0B8
:1047D00042F8103F0E48002344F24041FDF786FCAA
:1047E000AD466FF01500BD46F8BDB6F5006F02D2BC
:1047F000B4F5006F03D307480B210323D8E7AC6956
:10480000A047F0E7AAED0010E9ED00100800000154
:10481000ACD60010B3ED00102DE9F04F0F4689B073
:1048200091461E46D0F808A06A4BD0F808809A42FC
:1048300000F2CD80B8F83C40B8F83E3001341C445A
:10484000B8F840301C44002A00F0C180B6F57A7FE9
:1048500080F0BD80836807A99B6A9847002840F0D4
:10486000B3804EB95C4B994535D85C4B40F26B3602
:10487000994588BF4FF44876079B029304FB09F4DF
:10488000B3FBF4F4BAF838309C4238BF1C466FF0E2
:10489000004304FB09FB0393B8F842309C421DDD42
:1048A0000398FB88BA885B08934228BF13463B8075
:1048B000BAF83020934204D9B8F83A209A4228BF77
:1048C0001A466FF0004398423A8008BF6FF08500A7
:1048D00009B0BDE8F08F40F2EE26CDE7029BB3FBB6
:1048E000FBF30193DDE901230BFB12335BBBBDF846
:1048F00004200199B8F83C30B8F83EE005934FF435
:104900007A757143B1FBF5F1BAF83650BAF834C094
:104910000495511A89B20EEB0300A942BAF832305D
:1049200080B213D9B8F840508D4228BF0D46511EB1
:10493000491B89B288420BD2151A013DB8F84020B4
:10494000ADB2AA420FD20134CB44A5E7049DEEE7F5
:104950000CEB030080B288422DD9121A013A95B2AD
:10496000049AAA42EFD8B3EB500F4FEA500203D299
:10497000059B934228BF1346C21A92B296451CD299
:10498000A0EB0E039BB272464FF47A7100FB01104C
:104990000199B0FBF1F00399864234BF801B301AB5
:1049A0008142D0D97B80BA80FD803C8100283FF4D1
:1049B00078AF0390C7E70846D5E7944582BFA0EBE0
:1049C0000C039BB26246DFE76FF0040080E76FF0F4
:1049D00015007DE740420F0000350C0020A10700C4
:1049E0001FB50023CDE9013304460A46ADF80C306B
:1049F0004368596843688A429B681CD39A421AD814
:104A0000104B9A4214D8104940F26B338A4288BF47
:104A10004FF4487301A92046FFF7FEFE002805DB8E
:104A200032280BDC01A9204606F0B7FB04B010BD0C
:104A300040F2EE23EEE76FF08500F7E76FF021001C
:104A4000F4E700BF00350C0020A1070073B5154B3B
:104A500053F8204023691D7C042906D8DFE801F0C3
:104A600003191B1D1F0004221A742669A3680DF187
:104A700003011B6A01AA204698479DF803108D4246
:104A800005D0B5681DB1F368019A2046A84702B069
:104A900070BD0022E8E70122E6E70222E4E70322F4
:104AA000E2E700BF609200202DE9F3410D46D0F807
:104AB00004800669836801A91B6898473479002C33
:104AC00044D1019F35EA070318D00820FDF7B6F955
:104AD00040B1204BC761C0E9053504230374447419
:104AE0008474C4741C4900234FF4015205F0E6FCA1
:104AF0006FF08504204602B0BDE8F08106F114078E
:104B00004FF0FF3338464FF0FF3206F0B8FB05F0A8
:104B10000303032B98F818000AD10621FEF750F87A
:104B2000044670B1384606F0ACFB6FF08B04E1E749
:104B3000EA0701D50421F1E7AB074CBF03210121AE
:104B4000ECE73560384606F09CFBD3E76FF00F04C6
:104B5000D0E700BF36EE0010B4D60010F8B54368B9
:104B600007695E690C4699B90620FDF767F930B10F
:104B7000214B43610223037444748474C4741F4939
:104B800000234FF4825205F099FC6FF01500F8BD38
:104B90003D796DBB14374FF0FF324FF0FF3338468D
:104BA00006F06DFB337843F00403337023892288C9
:104BB000F169013B013AC3F3090343EA4263E28826
:104BC000013A92040B4302F0FE72A18813436288FB
:104BD0000A44013A920202F47F321343F3613378BC
:104BE00003F0FB033846337006F04BFB2846CEE754
:104BF0006FF00F00CBE700BF65EE0010B4D60010D9
:104C00002DE9F8430E790569082E0C4619D90820BC
:104C1000FDF714F950B14E4BC0E905360823C361C6
:104C200004230374002343748374C3744949002329
:104C30004FF4015205F042FC6FF015063046BDE816
:104C4000F8832979002977D0297C032977D06179E5
:104C500011F00C0F76D105F12808404603F026FE2E
:104C60000646002871D105F114074FF0FF324FF0CE
:104C7000FF33384606F003FBEFF31183202282F363
:104C80001288BFF36F8F089AAA63099AEA6383F3C5
:104C90001188BFF36F8F63792A6C13F0010F2368BB
:104CA0001ABF23F0604343F00043C3F30A031360C9
:104CB0006379C3F3400353606379C3F38003936064
:104CC0006379C3F3C003D3606379C3F30013136143
:104CD000237953612379204A686C0F2B28BF0F2357
:104CE00004F10801D25C082A28BF082285F8482070
:104CF00005F1400908F018FA49460020FDF786FF43
:104D0000041E15DA0820FDF799F840B1134BC0E9ED
:104D1000053403230374002343748374C3740D495F
:104D200000234FF4C25205F0C9FB404603F08AFD50
:104D3000384606F0A6FA81E76FF072067EE76FF05C
:104D400071067BE76FF0850678E76FF00A0675E776
:104D50007EEE0010B4D600108BF000109DEE001017
:104D60002DE9F0410669446806F1140805464FF044
:104D7000FF324FF0FF33404606F081FA377947BBE8
:104D800020683168E0B183681B6898470446B8B171
:104D90000820FDF753F838B10F4B4774C0E90534CC
:104DA000032303748774C7740C4900234FF4C25261
:104DB00005F084FB404606F064FA2046BDE8F08129
:104DC0003168AB682846DB689847012333710024BB
:104DD000F0E76FF07704EDE7C5EE0010B4D60010F1
:104DE00070B50569446805F114064FF0FF334FF0C4
:104DF000FF32304606F043FA2B791BB32068E0B14E
:104E000083685B6898470446B8B10820FDF716F838
:104E100040B10E4BC0E905340323037400234374EF
:104E20008374C3740A4900234FF4C25205F046FB51
:104E3000304606F026FA204670BD042300242B7469
:104E40002C71F5E76FF07704F2E700BFC5EE0010B4
:104E5000B4D600102DE9F8431D7A0469012D894666
:104E600090461E4617D90820FCF7E8FF40B1304BAA
:104E7000C0E9053503230374002343748374C374AA
:104E80002C4900234FF4C25205F018FB6FF0850542
:104E90002846BDE8F88304F114074FF0FF334FF0C4
:104EA000FF32384606F0EBF994F8A830002523FAD3
:104EB00005F2D2071AD5052D16D10820FCF7BEFF42
:104EC00048B11D4B43610523836103230374002311
:104ED00043748374C374174900234FF4C45205F01C
:104EE000EDFA6FF01B051FE00135E0E7052DE4D07A
:104EF000EFF3118C202383F31288BFF36F8F01220D
:104F000094F8A830AA40134384F8A830142303FB74
:104F10000544C4E92B9896E80700B43484E80700F8
:104F20008CF31188BFF36F8F384606F0AAF9AFE70C
:104F3000EFEE0010B4D6001013EF00102DE9F04191
:104F4000042904690D4614D90820FCF777FF40B105
:104F50002A4BC0E90535032303740023437483748B
:104F6000C37400234FF4C252BDE8F041244905F058
:104F7000A5BA04F114074FF0FF324FF0FF33384663
:104F800006F07DF994F8A860EE4016F0010612D103
:104F9000384606F076F90820FCF750FF38B1194B77
:104FA0004674C0E90535032303748674C674002370
:104FB0004FF4C452D8E7EFF31181202383F3128812
:104FC000BFF36F8F012294F8A830AA4023EA0203AE
:104FD00084F8A830142303FB05440023C4E92B33D1
:104FE000C4E92D33C4F8BC3081F31188BFF36F8F4F
:104FF0003846BDE8F04106F044B900BF41EF00106B
:10500000B4D600105CEF00102DE9F04387B0002308
:10501000CDE9033347680669ADF81430804606F1E0
:10502000140007F0D4FE0122114606F1280007F013
:10503000D5FE3868D0B107F087FE0446B0B9062027
:10504000FCF7FCFE30B1794B4361022303744474D6
:105050008474C474764900234FF4825205F02EFA0A
:105060006FF01204204607B0BDE8F083386A07F0FD
:105070006BFE044630B90620FCF7E0FE0028E9D0BC
:105080006C4BE1E7386A836807F124011B68984795
:105090000546A0B10620FCF7D1FE38B1664B43614E
:1050A00002230374002343748374C3746049002390
:1050B0004FF4825205F002FA6FF00404D2E7014681
:1050C00002AA386B06F011FC041E07DB029B2A467D
:1050D0001979186800F0E4F9041E0EDA0820FCF7CC
:1050E000ADFE002859D0554BC0E9053403230374A5
:1050F000002343748374C3744FE004233374FB6947
:1051000040469847387E4E4B022143F82080FDF7F9
:1051100023FD041E0DDA0820FCF790FE00283CD089
:10512000484B4574C0E90534032303748574C57482
:1051300033E0FF23387E444A00930121434BFDF7BF
:10514000F7FC041E05DA0820FCF778FE28B3404B74
:10515000E7E7D8F80490D9F80C20B9F8103003A983
:105160004046FFF759FB041E1EDA0820B9F810600C
:10517000FCF764FE38B1374B4574C0E905360323AC
:1051800003748574C5742A4900234FF4C25205F094
:1051900095F90820FCF752FE98B9254900234FF4F1
:1051A000C25205F08BF95DE703A9404605F0F5FF13
:1051B000041E08DA0820FCF741FE0028EDD0264B3B
:1051C000AFE7264B90E72B46387E40F2FF72142162
:1051D000FDF700FD2B46387E6FF060424421FDF75D
:1051E000F9FC06F14C0306F58E72336406F1680390
:1051F0007364C6F81021402306F59C7286F8483087
:1052000006F58879C6F8142186F81831D8F80830E0
:105210002946DB6840469847044600287FF422AFC1
:10522000387E4946FDF702FD04461BE784EF001077
:10523000B4D600109EEF0010B5EF0010C9EF0010BB
:1052400060920020E4EF00104D4A00105D53001002
:1052500005F0001023F0001072F000104BF0001069
:105260002DE9F047066988B0D6F8102100238DF8A3
:1052700005301368002BBBBF23F060430093C3F3DA
:105280000A030123B4BF8DF8053000935368074625
:105290002BB19DF8053043F002038DF8053093687B
:1052A0002BB19DF8053043F004038DF80530D36829
:1052B0002BB19DF8053043F008038DF805301369D4
:1052C0002BB19DF8053043F010038DF80530137DA8
:1052D0008DF804300F2B28BF0F231F4AD6F8141166
:1052E000D25C082A28BF082202A807F01DFF9DF8FB
:1052F000058018F0020516D1344608F001080DF1BA
:10530000100996F8A830EB40DB0707D594F8BC30BD
:1053100003F00103B8F1000F08D04BB90135052D9A
:1053200004F11404EDD108B0BDE8F087002BF5D1ED
:10533000D4F8B420009B5340D4F8B8201342EDD1E8
:105340006B460FCBD4F8ACA089E80F004946D4F8DF
:10535000B0203846D047E1E78BF00010054B53F8FA
:10536000200009B905F08FBF012901D1FFF778BFEF
:10537000704700BF609200208B68072B16D8DFE8CB
:1053800003F01A04070A0C0F04120023002010E097
:105390004FF4E103FAE7094BF8E74FF40043F5E770
:1053A0004FF4FA53F2E74FF46123EFE700236FF075
:1053B000150013607047024BE8E700BF000077015B
:1053C00080F0FA0208B5074807F0BEFC38B106487D
:1053D000FFF732F90448FCF7B7FB002008BD6FF077
:1053E0001200FBE7FCD20010ED5300100A2838B57C
:1053F000074D044604D1AB680D215B6828469847E9
:10540000AB6803485B68E1B29847204638BD00BFEF
:10541000FCD2001010B54168886810B900242046FD
:1054200010BD836810311B68984704460028F5D0EA
:105430000620FCF703FD38B1074B436102230374D8
:10544000002343748374C374044900234FF48252CD
:1054500005F034F8E3E700BFCCF00010DCD6001014
:105460004368C1F342010139186803290CD8DFE809
:1054700001F002050709064905F025BD0549FBE7CE
:105480000549F9E70549F7E76FF08500704700BF68
:10549000A0860100801A060040420F0040E1330060
:1054A0002DE9F043DFF88C8085B0054600EBC1069E
:1054B0000127B54201D1002029E055F8083B55F8F5
:1054C000044CA20758BFC4F38002C3F3072954BF9A
:1054D0005200012207FA09F9E007CDE901898DF8A8
:1054E0000D2017D4210717D403F00F0301338DF8D3
:1054F0000C30C4F300138DF80E3001A8C4F38113EF
:105500008DF80F3005F0EBFA40B16FF0850005B073
:10551000BDE8F0830023EAE70123E8E72207C8D5C6
:10552000A3060198494602D505F022FBC1E705F024
:1055300021FBBEE700800040F7B5456806462F68AE
:10554000A86807F001FC0446A8B90620FCF776FC21
:1055500030B1354B43610223037444748474C474C2
:10556000324900234FF4825204F0A8FF6FF0120476
:10557000204603B0F0BD3846FDF7BEFE04460028C5
:10558000F6D1A868836805F10C011B6898470446AA
:1055900090B10620FCF752FC38B1254B4361022341
:1055A0000374002343748374C374204900234FF4AD
:1055B000825204F083FFDBE76969042928BFFF21D9
:1055C000C9B23846FDF7EAFE044630B10620FCF7C2
:1055D00035FC0028E9D0174BE0E7014601AA6868CE
:1055E00006F083F9041EC3DB019B002219791868B9
:1055F000FFF756FF04460028BAD105F118013046DE
:1056000006F032FA04460028B2D10121384605F0EE
:105610008FF904460028ABD15021384605F08CF9AB
:105620002B6A30469847A3E710F1001024D70010EA
:105630002FF1001048F100102DE9F04F1E468B8825
:105640000569D0F804900C4699048DB08046174641
:105650006ED44FF0FF324FF0FF3305F1100003F02E
:1056600025F96C60D8F80430D8F810B0D3F800A051
:10567000DBF800309C4230D0A38813F0010C64D1D9
:105680000CAA12E907000DF1080EAEE80300C3F3FF
:105690008033AEF80020226800930123019219465E
:1056A00062465046FDF7E0FE00284ED1A3889A07D7
:1056B000C3F3800143D5002945D00321504605F0AE
:1056C00041FB002841D1A1885046C1F3451105F0A6
:1056D00033FB002839D1CBF80040002F44D16F6351
:1056E0000023AB6305F1480205F1380105F13400F0
:1056F00006F02DFA6864002E3CD1EE6300232B6483
:1057000005F1400105F1500205F13C0006F01FFAD9
:105710000021E8642963A368002B31D0D9F8000088
:1057200005F022FB2868002840F03181002335E095
:10573000AB69002B8DD16B689C428AD192E700291E
:10574000BCD00221BAE70121B8E72B689B8813F48B
:10575000005304D16B6005F1100003F073F86FF093
:1057600004000DB0BDE8F08F3B686B63002BB7D031
:105770007B68B6E73368EB63002BBFD07368BEE786
:10578000D9F80000012105F0EFFAD9F8002053689C
:1057900023F4907343F48073536001230693D8F885
:1057A00004B0D8F81040DBF8000005F0D7FA216803
:1057B000A66CB1F804A0226DCAF3451ABAF1080F1D
:1057C00094BF4FF0000A4FF0010A002E40F0EC8029
:1057D0001646626C6266E26C26FA0AF0E0662067A2
:1057E000002A00F0E880A266DBF80020A265002213
:1057F000C988E165C4E91D222266DBF800707A6879
:10580000930702D5384605F09BFAA26E002A00F0F5
:10581000D780216F002900F0D380BA6892B242EAA3
:105820000142BA60FA6942F48002FA61BA68E16E34
:10583000120C1204002900F0CA8089B20A43BA602F
:10584000FA6942F04002FA61FA6942F08012FA61A4
:105850007A6842F001027A60384605F083FADBF894
:105860000070384605F07AFA384605F075FAE36EAE
:1058700003FA0AF39B46236F03FA0AFA04F1800342
:105880000793636FBBEB030214D0616E002940F0F5
:10589000A380022A079928BF0222384605F058FA49
:1058A000636F184460677B6898065EBF7B6843F04F
:1058B00020037B60A36F9A4509D9A16EAAEB03026E
:1058C0001944384605F040FAA36F0344A367636F99
:1058D0009B45D6D8A36F9A45D3D8384605F040FAF1
:1058E0000105FAD5384605F03DFAA36C9BB1B342E9
:1058F00074D20620FCF7A2FA38B1594B4361022357
:105900000374002343748374C374564900234FF413
:10591000825204F0D3FD236D9BB1B34277D20620AF
:10592000FCF78CFA38B14E4B436102230374002319
:1059300043748374C3744B4900234FF4825204F0C0
:10594000BDFDAB6C002B7FF42AAF2B6D002B7FF4D9
:1059500026AF069B002B73D12B6863B19A6852B1B6
:105960009A88D20407D4186907F0DFF928680699E5
:10597000083006F0FFF82B689B8813F4005304D11D
:105980006B6005F1100002F05DFF0020E9E683681E
:10599000002B3FF4CBAE0121083006F0EBF82B686A
:1059A000186907F0C2F9C1E6002A3FF412AF964227
:1059B00028BF16460DE704F18000A066226713E7B2
:1059C000BA6892B2BA60FA6922F480022DE7BA602E
:1059D000FA6922F0400236E719445EE79B1BA36494
:1059E0007BB9636B08336363A36B013BA36304F16F
:1059F000480204F1380104F1340006F0A8F86064AC
:105A000089E7636C002B86D03344636483E79B1B78
:105A100023657BB9E36B0833E363236C013B2364A9
:105A200004F1500204F1400104F13C0006F08FF84B
:105A3000E06486E7E36C002B83D03344E36480E7C3
:105A4000D9F80020536823F4907323F001035360C6
:105A5000D9F80020536843F0010353608BE700BF7F
:105A600080F1001014D700102DE9F04782B046688D
:105A70000469D6F8008000AF0546B06807F064F905
:105A800028B96FF012000837BD46BDE8F0874046E0
:105A9000FDF712FDB068836806F10C011B6898479A
:105AA0000028F0D101463A1D706805F01EFF00285D
:105AB000E9DB7B68002219791868FFF7F1FC002800
:105AC000E1D1A6684FF00108D4E9023203EBC2032A
:105AD0009E4205D32046656506F060F80020D2E7B7
